:020000040C00EE
:100000000008001001020008B1020008B102000857
:10001000B1020008B1020008B102000800000000AF
:10002000000000000000000000000000B102000815
:10003000B102000800000000B1020008D903000866
:10004000B1020008B1020008B1020008B1020008C4
:10005000B1020008B1020008B1020008B1020008B4
:10006000B1020008000000000000000000000000D5
:10007000B102000800000000B1020008B10200084F
:10008000B1020008B1020008B1020008B102000884
:10009000B1020008B1020008B1020008B102000874
:1000A000B1020008B1020008B1020008B102000864
:1000B000B1020008B1020008B1020008B102000854
:1000C000B1020008B1020008B1020008B102000844
:1000D000B1020008B1020008B1020008B102000834
:1000E000B1020008B1020008B1020008B102000824
:1000F000B1020008B1020008B1020008B102000814
:10010000B1020008B1020008B1020008B102000803
:10011000B1020008B1020008B1020008B1020008F3
:10012000B1020008B1020008B1020008B1020008E3
:10013000B1020008B1020008B1020008B1020008D3
:10014000B1020008B1020008B1020008B1020008C3
:10015000B1020008B1020008B1020008B1020008B3
:10016000000000000000000000000000000000008F
:10017000B1020008B1020008B1020008B102000893
:10018000B1020008B1020008B1020008B102000883
:10019000B1020008B1020008B1020008B102000873
:1001A000B1020008B1020008B1020008B102000863
:1001B000B1020008B1020008B1020008B102000853
:1001C000B1020008B1020008B1020008B102000843
:1001D000B1020008B1020008B102000800000000EE
:1001E000B1020008B1020008B1020008B102000823
:1001F000B102000800000000B10200080000000089
:10020000DFF88CD023488047234C244DAC4209DAD8
:1002100021686268A368043BA2BFC858D050FAE7BF
:100220000C34F3E71E4B1F4CA34208DA19685A68D6
:100230000020043AA4BF8850FBE70833F4E71A48CB
:1002400080471A4880470000A834000C00000020B6
:1002500038040000E038000C00000030000000000E
:10026000A834000C0008001000000000A834000CA6
:100270000008001000000000380400208C0000007E
:100280000000003000000000000800100000000026
:1002900000080010493000084802000878020008F1
:1002A0007802000890020008513400089503000805
:1002B000FEE7000080B483B000AF03463960FB71F5
:1002C00097F90730002B0ADB3B68DAB20C4997F943
:1002D00007309200D2B20B4483F800230AE03B6857
:1002E000DAB20849FB7903F00F03043B9200D2B263
:1002F0000B441A7600BF0C37BD465DF8047B70478F
:1003000000E100E000ED00E080B582B000AF786071
:100310007B68013BB3F1807F01D301230FE00A4AE0
:100320007B68013B53603F214FF0FF30FFF7C2FF76
:10033000054B00229A60044B07221A6000231846DE
:100340000837BD4680BD00BF10E000E080B483B038
:1003500000AF78600B46FB70FB7801229A407B6807
:100360005A6000BF0C37BD465DF8047B704780B40F
:1003700083B000AF78600B46FB70FB784FF480329F
:100380009A407B685A6000BF0C37BD465DF8047B1D
:100390007047000080B500AF0A4A01210A4802F008
:1003A0001BF80A4B1B680A4AA2FB03239B09184649
:1003B000FFF7AAFF074800F073F841F2883000F019
:1003C00019F8F7E70000002000810248C0FF002074
:1003D000D34D62109834000880B400AF044B1B6802
:1003E0000133034A136000BFBD465DF8047B7047CC
:1003F0003804002080B485B000AF7860094B1B68DA
:10040000FB607B68BB6000BF064B1A68FB68D31AB1
:10041000BA689A42F8D800BF1437BD465DF8047B2D
:10042000704700BF3804002080B500AF01210648A6
:10043000FFF78CFF6420FFF7DDFF01210248FFF783
:1004400096FF00BF80BD00BF0081024880B500AFAD
:1004500001210648FFF77AFF4FF49670FFF7CAFFB5
:1004600001210248FFF783FF00BF80BD00810248E1
:1004700080B500AF6420FFF7BDFF00BF80BD80B531
:1004800000AF4FF49670FFF7B5FF00BF80BD80B599
:1004900000AF4FF42F70FFF7ADFF00BF80BD00002D
:1004A00080B584B000AF78600023FB60C9E2FB68D0
:1004B0007A6813441B78203B5A2B00F2A88201A2D1
:1004C00052F823F0090A00080F0A00080F0A000872
:1004D0000F0A00080F0A00080F0A00080F0A000898
:1004E0000F0A00080F0A00080F0A00080F0A000888
:1004F0000F0A00080F0A00080F0A00080F0A000878
:100500000F0A00088D080008B3080008D908000881
:10051000FF080008250900084B09000871090008B8
:1005200097090008BD090008E30900080F0A000840
:100530000F0A00080F0A00080F0A00080F0A000837
:100540000F0A00080F0A00080F0A00080F0A000827
:100550000F0A00080F0A00080F0A00080F0A000817
:100560000F0A00080F0A00080F0A00080F0A000807
:100570000F0A00080F0A00080F0A00080F0A0008F7
:100580000F0A00080F0A00080F0A00080F0A0008E7
:100590000F0A00080F0A00080F0A00080F0A0008D7
:1005A0000F0A00080F0A00080F0A00080F0A0008C7
:1005B0000F0A00080F0A00080F0A00080F0A0008B7
:1005C0000F0A00080F0A0008310600083F0600085D
:1005D0005D0600087B0600089106000897060008E3
:1005E000B5060008CB060008E9060008F706000873
:1005F000150700082B0700084907000857070008DF
:10060000650700087B07000899070008B70700087E
:10061000CD070008E3070008E9070008FF07000806
:100620001D08000833080008510800086F0800087A
:10063000FFF7FAFEFFF71CFFFFF708FFE8E1FFF7FF
:1006400005FFFFF715FFFFF7EFFEFFF711FFFFF7BD
:10065000EBFEFFF70DFFFFF7E7FED9E1FFF7F6FE30
:10066000FFF706FFFFF7E0FEFFF702FFFFF7EEFEE2
:10067000FFF7FEFEFFF7D8FECAE1FFF7E7FEFFF740
:10068000F7FEFFF7D1FEFFF7F3FEFFF7CDFEBFE168
:10069000FFF7CAFEBCE1FFF7C7FEFFF7E9FEFFF771
:1006A000C3FEFFF7E5FEFFF7D1FEFFF7E1FEFFF720
:1006B000BBFEADE1FFF7CAFEFFF7DAFEFFF7C6FEAD
:1006C000FFF7D6FEFFF7B0FEA2E1FFF7ADFEFFF7A2
:1006D000CFFEFFF7A9FEFFF7CBFEFFF7A5FEFFF762
:1006E000C7FEFFF7A1FE93E1FFF79EFEFFF7C0FEF6
:1006F000FFF79AFE8CE1FFF797FEFFF7B9FEFFF7D1
:10070000A5FEFFF7B5FEFFF7A1FEFFF7B1FEFFF76D
:100710009DFE7DE1FFF79AFEFFF7AAFEFFF784FE3C
:10072000FFF7A6FEFFF792FE72E1FFF77DFEFFF7EF
:100730009FFEFFF78BFEFFF79BFEFFF775FEFFF7AF
:1007400097FEFFF771FE63E1FFF780FEFFF790FE73
:10075000FFF77CFE5CE1FFF779FEFFF789FEFFF70C
:1007600063FE55E1FFF772FEFFF782FEFFF76EFEB4
:10077000FFF77EFEFFF76AFE4AE1FFF755FEFFF73F
:1007800077FEFFF763FEFFF773FEFFF75FFEFFF7ED
:100790006FFEFFF749FE3BE1FFF758FEFFF768FEEB
:1007A000FFF754FEFFF764FEFFF73EFEFFF760FE23
:1007B000FFF74CFE2CE1FFF737FEFFF759FEFFF77E
:1007C00045FEFFF755FEFFF72FFE21E1FFF72CFE58
:1007D000FFF74EFEFFF728FEFFF74AFEFFF724FE65
:1007E00016E1FFF733FE13E1FFF71EFEFFF740FEB1
:1007F000FFF71AFEFFF73CFEFFF728FE08E1FFF7C0
:1008000013FEFFF735FEFFF70FFEFFF731FEFFF790
:100810000BFEFFF72DFEFFF719FEF9E0FFF704FED0
:10082000FFF726FEFFF712FEFFF722FEFFF70EFE90
:10083000EEE0FFF70BFEFFF71BFEFFF7F5FDFFF7FE
:1008400017FEFFF7F1FDFFF713FEFFF7FFFDDFE0F7
:10085000FFF7FCFDFFF70CFEFFF7E6FDFFF708FED4
:10086000FFF7F4FDFFF704FEFFF7F0FDD0E0FFF720
:10087000EDFDFFF7FDFDFFF7E9FDFFF7F9FDFFF7E0
:10088000D3FDFFF7F5FDFFF7CFFDC1E0FFF7DEFD7C
:10089000FFF7EEFDFFF7DAFDFFF7EAFDFFF7D6FD04
:1008A000FFF7E6FDFFF7D2FDFFF7E2FDFFF7CEFD14
:1008B000AEE0FFF7B9FDFFF7DBFDFFF7C7FDFFF780
:1008C000D7FDFFF7C3FDFFF7D3FDFFF7BFFDFFF730
:1008D000CFFDFFF7BBFD9BE0FFF7A6FDFFF7C8FDCF
:1008E000FFF7A2FDFFF7C4FDFFF7B0FDFFF7C0FD66
:1008F000FFF7ACFDFFF7BCFDFFF7A8FD88E0FFF7B1
:1009000093FDFFF7B5FDFFF78FFDFFF7B1FDFFF793
:100910008BFDFFF7ADFDFFF799FDFFF7A9FDFFF791
:1009200095FD75E0FFF780FDFFF7A2FDFFF77CFD69
:10093000FFF79EFDFFF778FDFFF79AFDFFF774FDC7
:10094000FFF796FDFFF782FD62E0FFF76DFDFFF711
:100950008FFDFFF769FDFFF78BFDFFF765FDFFF7E3
:1009600087FDFFF761FDFFF783FDFFF75DFD4FE0BA
:10097000FFF76CFDFFF77CFDFFF756FDFFF778FDF5
:10098000FFF752FDFFF774FDFFF74EFDFFF770FD17
:10099000FFF74AFD3CE0FFF759FDFFF769FDFFF760
:1009A00055FDFFF765FDFFF73FFDFFF761FDFFF721
:1009B0003BFDFFF75DFDFFF737FD29E0FFF746FD43
:1009C000FFF756FDFFF742FDFFF752FDFFF73EFD33
:1009D000FFF74EFDFFF728FDFFF74AFDFFF724FD67
:1009E00016E0FFF733FDFFF743FDFFF72FFDFFF79D
:1009F0003FFDFFF72BFDFFF73BFDFFF727FDFFF75F
:100A000037FDFFF711FD03E0FFF741FD00E000BFF8
:100A1000FB687A6813441B78202B0FD0FB680133E6
:100A20007A6813441B78202B08D0FB6801337A685E
:100A300013441B78002B01D0FFF721FDFB68013325
:100A4000FB60FB687A6813441B78002B7FF42FADA2
:100A500000BF1037BD4680BD80B483B000AF786062
:100A60000B46FB701346BB70FB789B08DBB21A4643
:100A70007B68043253F82220FB7803F00303DB0089
:100A8000F82101FA03F3DB43F9788908C9B2084673
:100A900002EA03017B68021D43F82210FB789B08E1
:100AA000DBB21A467B68043253F82220B978FB780F
:100AB00003F00303DB0001FA03F3F9788908C9B2F4
:100AC000084642EA03017B68021D43F8221000BF7A
:100AD0000C37BD465DF8047B704780B483B000AF2F
:100AE00078600B46FB701346BB707B685A6FFB78CF
:100AF0005B00032101FA03F3DB431A407B685A676A
:100B00007B685A6FB978FB785B0001FA03F31A43EC
:100B10007B685A6700BF0C37BD465DF8047B7047A1
:100B200080B400AF044B9B6903F480331846BD4684
:100B30005DF8047B704700BF0046005080B400AFF2
:100B4000044B5B6A03F440331846BD465DF8047BF2
:100B5000704700BF0046005080B400AF054B9B6A51
:100B6000DBB203F00303DBB21846BD465DF8047B3D
:100B7000704700BF0046005080B400AF064B1A68B3
:100B8000064B1B6903F0010302FA03F31846BD4646
:100B90005DF8047B704700BFC0FF00200046005096
:100BA00080B400AF034B1B681846BD465DF8047B5C
:100BB000704700BFC0FF002080B400AF034BD3F8E4
:100BC000C4301846BD465DF8047B704700400050B5
:100BD00080B584B000AF786002F084FB0C4B1B68DA
:100BE0000C4AA2FB03239A0C7B6802FB03F37B6095
:100BF0000023FB6003E000BFFB680133FB60FA6881
:100C00007B689A42F7D300BF1037BD4680BD00BF56
:100C1000C0FF002083DE1B4380B483B000AF786048
:100C2000054B9A6804497B6813438B6000BF0C37FF
:100C3000BD465DF8047B70477440005080B483B0BB
:100C400000AF7860064B9A687B68DB430449134029
:100C50008B6000BF0C37BD465DF8047B704700BF5A
:100C60007440005080B483B000AF7860054B1A69BF
:100C700004497B6813430B6100BF0C37BD465DF828
:100C8000047B70477440005080B400AF034B5B6836
:100C90001846BD465DF8047B704700BF74400050A5
:100CA00080B483B000AF7860044A7B68D36000BF33
:100CB0000C37BD465DF8047B704700BF74400050A0
:100CC00080B400AF044B1B6903F470631846BD4643
:100CD0005DF8047B704700BF0040005080B483B0D3
:100CE00000AF0346FB80044AFB88136100BF0C374A
:100CF000BD465DF8047B70470040005080B483B06F
:100D000000AF7860054A7B680A339B0013445B6838
:100D100018460C37BD465DF8047B70470040005014
:100D200080B483B000AF78603960064A7B680A33CC
:100D30009B0013443A685A6000BF0C37BD465DF80B
:100D4000047B70470040005080B483B000AF7860EF
:100D500039600A4A7B68283352F8232001213B6816
:100D600001FA03F305491A437B68283341F823202D
:100D700000BF0C37BD465DF8047B70470040005053
:100D800080B483B000AF786039600B4A7B68283349
:100D900052F8232001213B6801FA03F3DB430649A3
:100DA0001A407B68283341F8232000BF0C37BD462A
:100DB0005DF8047B704700BF0040005080B483B0F2
:100DC00000AF786039607B681A013B68DB0213432F
:100DD000054A43F40803C2F88C3000BF0C37BD4607
:100DE0005DF8047B704700BF0040005080B400AF46
:100DF000064BD3F88C30054A23F00103C2F88C303F
:100E000000BFBD465DF8047B704700BF0040005046
:100E100080B400AF064BD3F88C30054A43F0010391
:100E2000C2F88C3000BFBD465DF8047B704700BF40
:100E30000040005080B400AF074BD3F88C3003F073
:100E40000103002B0CBF01230023DBB21846BD4673
:100E50005DF8047B704700BF0040005080B400AFD5
:100E6000074BD3F8903003F48043002B14BF0123C9
:100E70000023DBB21846BD465DF8047B704700BF17
:100E80000040005080B582B000AF0023FB71FFF737
:100E9000D1FF034683F00103DBB2002B01D0012315
:100EA000FB7100F031F80346002B01D00223FB71E7
:100EB000064BD3F88C30054A43F00203C2F88C305D
:100EC000FB7918460837BD4680BD00BF0040005082
:100ED00080B582B000AFFFF7ADFF034683F001039A
:100EE000DBB2002B03D06FF000437B6005E0054BC5
:100EF000D3F89030C3F309037B607B68184608374A
:100F0000BD4680BD0040005080B400AF074BD3F811
:100F1000903003F40043002B14BF01230023DBB205
:100F20001846BD465DF8047B704700BF0040005086
:100F300080B485B000AF786039607B681B0403F42F
:100F40007023FB60FB6843F00103FB600A4A3B68C7
:100F5000C2F8CC30084AFB68C2F8C83000BF064B64
:100F6000D3F8C43003F40053002BF8D100BF14377A
:100F7000BD465DF8047B70470040005080B485B0EA
:100F800000AF78607B681B0403F47023FB60FB6890
:100F900023F00103FB600A4AFB68C2F8C83000BFB7
:100FA000074BD3F8C43003F40053002BF8D1044BA3
:100FB000D3F8CC3018461437BD465DF8047B704733
:100FC0000040005090B585B002AF7860002000F07E
:100FD000F1FA00F07FFD7B68DB79002B0AD000F08E
:100FE00077FF00BF00F062FF034683F00103DBB22E
:100FF000002BF7D17B685B7A184600F06FFB00BFCF
:10100000FFF7DAFD0346002BFAD17B681B7A1846FE
:1010100000F00CFD7B681B7C184600F07FFB7B68B2
:101020005B7C184600F0A6FB7B689B7C184600F0B2
:101030008BFB7B68DB7C184600F0B2FB7B689B79FE
:10104000002B0AD000F0D8FF00BF00F0FDFF0346E0
:1010500083F00103DBB2002BF7D17B68DB78002B38
:1010600002D101F055F811E001F040F87B68988852
:101070007B68D9787B685B781A467B681B781C464E
:101080007B689B780093234601F054F87B68DB680B
:10109000B3F5803F03D14FF4803000F08BFA02F0BB
:1010A00021F900BF0C37BD4690BD000080B483B06D
:1010B00000AF7860064B9A687B68DB4304491340B5
:1010C0008B6000BF0C37BD465DF8047B704700BFE6
:1010D0006041005080B483B000AF7860054B9A68DF
:1010E00004497B6813438B6000BF0C37BD465DF835
:1010F000047B70476041005080B400AF034B5B68D5
:101100001846BD465DF8047B704700BF6041005043
:1011100080B483B000AF7860044A7B68136100BF7D
:101120000C37BD465DF8047B704700BF604100503E
:1011300080B483B000AF7860044A7B68D36000BF9E
:101140000C37BD465DF8047B704700BF604100501E
:1011500080B483B000AF7860054B5A6904497B685E
:1011600013434B6100BF0C37BD465DF8047B7047ED
:101170003C41005080B400AF034B5B691846BD464C
:101180005DF8047B704700BF3C41005080B483B0E1
:1011900000AF7860054B1A6804497B6813430B6005
:1011A00000BF0C37BD465DF8047B70473C410050E2
:1011B00080B483B000AF7860064B1A687B68DB436D
:1011C000044913400B6000BF0C37BD465DF8047B3B
:1011D000704700BF3C41005080B483B000AF7860DE
:1011E000054B9A6804497B6813438B6000BF0C373A
:1011F000BD465DF8047B70473C41005080B483B02D
:1012000000AF7860064B9A687B68DB430449134063
:101210008B6000BF0C37BD465DF8047B704700BF94
:101220003C41005080B483B000AF7860054B5A69F0
:1012300004497B6813434B6100BF0C37BD465DF822
:10124000047B70477440005080B483B000AF786076
:10125000064B5A697B68DB43044913404B6100BF6E
:101260000C37BD465DF8047B704700BF74400050EA
:1012700080B485B000AF78607B681B0FFB607B6833
:1012800023F07043BB60FA6813465B0013449B0075
:101290001A46054B1344BA681A6000BF1437BD469E
:1012A0005DF8047B704700BF1044005080B485B0E7
:1012B00000AF78607B681B0FFB607B6823F0704396
:1012C000BB60FA6813465B0013449B001A46054B4B
:1012D0001344BA681A6000BF1437BD465DF8047B3A
:1012E000704700BF1444005080B485B000AF7860F0
:1012F0007B681B0FFB607B6823F07043BB60FA6860
:1013000013465B0013449B001A46084B13441A68AB
:10131000BB681340002B14BF01230023DBB2184627
:101320001437BD465DF8047B704700BF0C44005085
:1013300080B584B000AF00F039F8F8601A4B1B6834
:1013400003F00103002B09D0174B9B6803F07F03C8
:101350000133FA68B2FBF3F3FB601FE0124B9B68AA
:101360001B0E03F00F030133BB600F4B9B681B0A7E
:1013700003F07F0301337B600B4B9B681B0C03F076
:101380007F0301333B60FB687A6802FB03F2BB68B2
:10139000396801FB03F3B2FBF3F3FB60FB6818460B
:1013A0001037BD4680BD00BF1047005080B582B0E9
:1013B00000AF084BDB6803F00103002B03D101F001
:1013C000FBFF786001E0044B7B607B6818460837C0
:1013D000BD4680BD1047005000366E0180B584B018
:1013E00000AF01F0E9FFF860104B1B6903F0010347
:1013F000002B16D10D4B5B691B0A03F07F030133F1
:10140000BB600A4B5B691B0E03F00F0301337B606B
:10141000FB68BA6802FB03F27B685B00B2FBF3F384
:10142000FB60FB6818461037BD4680BD1047005072
:1014300080B582B000AF00237B60FFF79DFB786032
:10144000054B1B6A03F001037A6822FA03F318467E
:101450000837BD4680BD00BF0046005080B582B051
:1014600000AF00237B60FFF75BFB38603B68B3F5A0
:10147000803F03D1FFF75CFF786005E03B68002BFD
:1014800002D1FFF7ABFF7860054B9B6903F00703C0
:1014900001337A68B2FBF3F318460837BD4680BDC6
:1014A0000046005080B582B000AFFFF741FF786082
:1014B000054BDB6903F03F0301337A68B2FBF3F3BA
:1014C00018460837BD4680BD0046005080B582B042
:1014D00000AF00237B60FFF731FB38603B68B3F55A
:1014E000003F03D1FFF724FF78600CE03B68002B3E
:1014F00002D10A4B7B6006E03B68B3F5803F02D126
:101500004FF400437B60064B5B6ADBB201337A68C1
:10151000B2FBF3F318460837BD4680BD00366E01B6
:101520000046005080B582B000AF00237B60FFF71B
:1015300013FB0346FB70FB78032B0DD1FFF7F8FE7E
:101540007860134B9B6A1B0CC3F3080301337A6862
:10155000B2FBF3F37B6016E0FB78002B03D1FFF7BF
:101560000BFB78600FE0FB78022B0CD1FFF736FF06
:101570007860074B9B6A1B0CC3F3080301337A683E
:10158000B2FBF3F37B607B6818460837BD4680BD2D
:101590000046005080B500AFFFF702FB0246044B47
:1015A0005B6903F0010322FA03F3184680BD00BF14
:1015B0000046005080B483B000AF7860064BDB6813
:1015C00023F4803204497B681343CB6000BF0C379F
:1015D000BD465DF8047B70470046005080B483B080
:1015E00000AF7860064B9B6923F4803204497B6826
:1015F00013438B6100BF0C37BD465DF8047B704719
:101600000046005080B483B000AF7860064B5B6A40
:1016100023F4403204497B6813434B6200BF0C370C
:10162000BD465DF8047B70470046005080B483B02F
:1016300000AF0346FB71074B9B6A23F00302FB7963
:10164000044913438B6200BF0C37BD465DF8047B31
:10165000704700BF0046005080B483B000AF03461F
:10166000FB80FB88002B08D10B4BDB680A4A23F474
:10167000807323F00103D36007E0074BDB68064A61
:1016800043F4807343F00103D36000BF0C37BD46C1
:101690005DF8047B704700BF1047005080B483B0F2
:1016A00000AF0346FB7100BF0A4BD3F8C43003F010
:1016B0000803002BF8D1084BDB6823F04002FB79CC
:1016C00005491343CB6000BF0C37BD465DF8047B72
:1016D000704700BF004000500043005080B483B00A
:1016E00000AF0346FB7100BF0A4BD3F8C43003F0D0
:1016F0000803002BF8D1084BDB6823F08002FB794C
:1017000005491343CB6000BF0C37BD465DF8047B31
:10171000704700BF004000500043005080B483B0C9
:1017200000AF7860074BDB6823F0FF027B68013B6A
:1017300004491343CB6000BF0C37BD465DF8047B02
:10174000704700BF0046005080B483B000AF78609F
:10175000074B1B6A23F001027B68013B04491343DA
:101760000B6200BF0C37BD465DF8047B704700BFBD
:101770000046005080B483B000AF7860074B1B690F
:1017800023F001027B68013B044913430B6100BF56
:101790000C37BD465DF8047B704700BF0046005023
:1017A00080B483B000AF7860074B5B6923F001021F
:1017B0007B68013B044913434B6100BF0C37BD46B6
:1017C0005DF8047B704700BF0046005080B483B0D2
:1017D00000AF7860074B9B6923F007027B68013BF1
:1017E000044913438B6100BF0C37BD465DF8047B91
:1017F000704700BF0046005080B483B000AF7860EF
:10180000074BDB6923F03F027B68013B044913432C
:10181000CB6100BF0C37BD465DF8047B704700BF4D
:101820000046005080B483B000AF7860074B5B6A1D
:1018300023F0FF027B68013B044913434B6200BF66
:101840000C37BD465DF8047B704700BF0046005072
:1018500080B483B000AF7860084B9B6A23F0FF73BD
:1018600023F480337A68013A1204044913438B62EB
:1018700000BF0C37BD465DF8047B70470046005042
:1018800080B483B000AF0346FB71044AFB79536018
:1018900000BF0C37BD465DF8047B70470046005022
:1018A00080B483B000AF0346FB71044AFB799360B8
:1018B00000BF0C37BD465DF8047B70470046005002
:1018C00080B483B000AF0346FB71074B1A68FB7905
:1018D0001340002B14BF01230023DBB218460C3742
:1018E000BD465DF8047B70470046005080B400AFF1
:1018F000084B5B69DBB207EE903AF8EE677A9FED32
:10190000067A67EE877A17EE903A1846BD465DF87C
:10191000047B704700420050ED0DBE3B80B400AF29
:10192000094B5B691B0ADBB207EE903AF8EE677A67
:101930009FED067A67EE877A17EE903A1846BD4615
:101940005DF8047B704700BF00420050EC51B83C8A
:1019500080B400AF064B5B69054A23F4803323F063
:101960000203536100BFBD465DF8047B704700BFB2
:101970001047005080B400AF064B5B69054A43F442
:10198000803343F00203536100BFBD465DF8047B22
:10199000704700BF1047005080B483B000AF78603C
:1019A00039601A4B5B69194A43F001035361174BC5
:1019B0005B69164A43F0100353613B68013B1A020E
:1019C0007B68013B1B06114913434B610F4B5B695D
:1019D0000E4A43F0400353610C4B5B690B4A23F002
:1019E00010035361094B5B69084A43F48023536138
:1019F00000BF064B1B6903F00403002BF9D000BFA6
:101A00000C37BD465DF8047B704700BF104700509F
:101A100080B400AF034B044A5A6100BFBD465DF875
:101A2000047B7047104700500300010080B582B06E
:101A300000AF0346FB710F4B5B680E4A43F4801303
:101A40005360FB79012B0ED10A4B5B68094A23F4E2
:101A5000801353606420FFF7BBF8064B5B68054AB0
:101A600043F4002353606420FFF7B2F800BF083747
:101A7000BD4680BD1047005080B400AF044B4FF40A
:101A800040325A6000BFBD465DF8047B704700BF1E
:101A90000042005080B400AF044B4FF440329A60D3
:101AA00000BFBD465DF8047B704700BF0042005098
:101AB00080B400AF064B1B6903F00403002B14BF76
:101AC00001230023DBB21846BD465DF8047B704756
:101AD0001047005080B400AF124B1B6803F00103A5
:101AE000002B09D10F4B01225A6000BF0D4B1B6820
:101AF00003F00103002BF9D00B4B1B6803F40073B8
:101B0000002B0AD0084B4FF400729A6000BF064BBE
:101B10001B6803F40073002BF9D100BFBD465DF8CC
:101B2000047B7047004200500044005080B400AF76
:101B3000054B01229A60054B4FF400725A6000BFBA
:101B4000BD465DF8047B70470042005000440050E1
:101B500080B400AF0B4B1B6803F00103002B07D0D0
:101B6000094B1B6803F40073002B01D1012300E033
:101B7000002303F00103DBB21846BD465DF8047B89
:101B8000704700BF004200500044005080B400AFD6
:101B900000BF094BD3F8C43003F02003002BF8D169
:101BA000064B5B69054A23F00103536100BFBD4644
:101BB0005DF8047B704700BF0040005000430050B8
:101BC00080B400AF00BF094BD3F8C43003F020034A
:101BD000002BF8D1064B5B69054A43F001035361C2
:101BE00000BFBD465DF8047B704700BF0040005059
:101BF0000043005080B483B000AF786000BF084B52
:101C0000D3F8C43003F00203002BF8D1054A7B68F7
:101C1000536000BF0C37BD465DF8047B704700BFC2
:101C2000004000500043005080B483B000AF7860A3
:101C300000BF084BD3F8C43003F00403002BF8D1E5
:101C4000054A7B68936000BF0C37BD465DF8047B96
:101C5000704700BF004000500043005080B483B084
:101C600000AF786000BF094BD3F8C43003F008031D
:101C7000002BF8D1064BDA687B6805491343CB602B
:101C800000BF0C37BD465DF8047B70470040005034
:101C90000043005080B483B000AF786000BF0A4BAF
:101CA000D3F8C43003F00803002BF8D1074BDB68EE
:101CB0007A68D2431146054A0B40D36000BF0C3707
:101CC000BD465DF8047B7047004000500043005063
:101CD00080B400AF00BF094BD3F8C43003F0080351
:101CE000002BF8D1064BDB68054A43F01003D360A4
:101CF00000BFBD465DF8047B704700BF0040005048
:101D00000043005080B582B000AF0346FB71FB7901
:101D1000002B01D1FFF7DCFF00BF0837BD4680BDB7
:101D200080B483B000AF0346FB7100BF0E4BD3F805
:101D3000C43003F00803002BF8D1FB79002B06D147
:101D40000A4BDB68094A43F48073D36005E0074B14
:101D5000DB68064A23F48073D36000BF0C37BD46AE
:101D60005DF8047B704700BF004000500043005006
:101D700080B483B000AF03463960FB7100BF0F4BE6
:101D8000D3F8C43003F00803002BF8D10C4BDA6809
:101D9000FB799B004FF4702101FA03F3DB431A40F7
:101DA000FB799B00396801FA03F305491343CB60C3
:101DB00000BF0C37BD465DF8047B70470040005003
:101DC0000043005080B483B000AF03460A46FB7165
:101DD0001346BB8000BF0F4BD3F8C43003F0080399
:101DE000002BF8D10C4BDA68FB794FF4805101FAE3
:101DF00003F3DB431340B988FA7901FA02F2114682
:101E0000054A0B43D36000BF0C37BD465DF8047B29
:101E1000704700BF004000500043005080B483B0C2
:101E200000AF0346FB7100BF0E4BD3F8C43003F084
:101E30000803002BF8D1FB79002B06D10A4BDB6895
:101E4000094A43F48063D36005E0074BDB68064A28
:101E500023F48063D36000BF0C37BD465DF8047B7C
:101E6000704700BF004000500043005080B483B072
:101E700000AF0346FB8000BF0A4BD3F8C43003F029
:101E80000803002BF8D1084BDB6823F48062FB8841
:101E900005491343CB6000BF0C37BD465DF8047B9A
:101EA000704700BF004000500043005080B400AFB6
:101EB000064B1B6803F00803002B0CBF0123002313
:101EC000DBB21846BD465DF8047B70470043005006
:101ED00080B500AF00BF174BD3F8C43003F08003C8
:101EE000002BF8D1144BDB69134A23F03003D36184
:101EF00000BF104BD3F8C43003F00803002BF8D117
:101F00000D4BDB680C4A43F00803D36000BF094B5C
:101F1000D3F8C43003F00403002BF8D1064B082299
:101F20009A6000BFFEF748FE0346002BFAD100BFBF
:101F300080BD00BF004000500043005080B400AF9F
:101F400000BF094BD3F8C43003F08003002BF8D155
:101F5000064BDB69054A43F03003D36100BFBD4641
:101F60005DF8047B704700BF004000500043005004
:101F700080B400AF00BF094BD3F8C43003F0800336
:101F8000002BF8D1064BDB69054A43F03103D361DE
:101F900000BFBD465DF8047B704700BF00400050A5
:101FA0000043005080B400AF00BF0A4BD3F8C430E8
:101FB00003F08003002BF8D1074BDB6923F03103DA
:101FC000054A43F02003D36100BFBD465DF8047BA2
:101FD000704700BF004000500043005080B400AF85
:101FE000044B9B6903F001031846BD465DF8047B72
:101FF000704700BF0043005098B500AF0F4B5B68BF
:102000000E4A23F4803353600D4B5B6823F4702435
:1020100024F0300401F0D0F902460A4BA3FB02235E
:102020001B0D013B1B04064A23435360034B5B68B3
:10203000024A23F40033536000BF98BD104700509C
:10204000004700506BCA5F6B80B400AF074B1B6842
:1020500003F46073B3F5607F0CBF01230023DBB290
:102060001846BD465DF8047B704700BF104700501E
:1020700080B400AF054B5B68044A43F03003536003
:1020800000BFBD465DF8047B704700BF00470050AD
:1020900080B400AF054B5B68044A43F00103536012
:1020A00000BFBD465DF8047B704700BF004700508D
:1020B00080B400AF054B5B68044A23F00103536012
:1020C00000BFBD465DF8047B704700BF004700506D
:1020D00080B400AF044B1B6803F001031846BD46F3
:1020E0005DF8047B704700BF0047005080B400AF2C
:1020F000064B5B68054A23F4803323F002035360E8
:1021000000BFBD465DF8047B704700BF104700501C
:1021100080B400AF064B5B68054A43F4803343F05C
:102120000203536000BFBD465DF8047B704700BFEB
:102130001047005080B586B000AFBA607B600346A0
:10214000FB810B467B73FB891846FFF785FA7B7B87
:10215000012B40F08480FB89002B09D101F02CF980
:1021600002464C4BA3FB02239B0C9B057B6102E0C8
:102170004FF0C0637B617B697A6802FB03F2BB6846
:10218000B2FBF3F37B617B69434AA2FB03231B0988
:102190009B0D3B61414B5B68404A43F00103536038
:1021A0003E4B5B683D4A43F0100353603B4B9A68DB
:1021B0003B4B13407A68013A12021A433B69013BD8
:1021C0001B041A43BB68013B1B06344913438B6055
:1021D000324B5B68314A43F0400353602F4B5B68DE
:1021E0002E4A23F0100353602C4B5B682B4A43F4B8
:1021F0008023536000BF294B1B6803F00403002BAE
:10220000F9D0264B5B68254A23F00103536000BFD9
:10221000224B1B6803F00103002BF9D17B69214A93
:10222000A2FB03235B099B0D3B613A6A3B699A421F
:1022300002D2386900F04AF87B695B081A4AA2FBAF
:1022400003235B099B0D3B613A6A3B699A4202D2C8
:10225000386900F03BF8386A00F038F815E00F4BA9
:102260009B6823F07F023B6A013B0C4913438B6060
:102270000A4B5B68094A43F00103536000BF074BF8
:102280001B6803F00103002BF9D000BF1837BD46CF
:1022900080BD00BF83DE1B43ABAAAAAA1047005033
:1022A000FF8080F089888888B7600BB680B400AF63
:1022B000054B5B68044A43F48033536000BFBD465E
:1022C0005DF8047B704700BF1047005080B582B0B6
:1022D00000AF7860084B9B6823F4FE027B68013BEB
:1022E0001B04054913438B603220FEF771FC00BFCD
:1022F0000837BD4680BD00BF1047005080B400AF16
:10230000064B1B6803F00403002B14BF01230023BA
:10231000DBB21846BD465DF8047B7047104700509D
:1023200080B485B000AF786039600023FB6002E0C4
:10233000FB680133FB607A68FB6822FA03F303F061
:102340000103002B02D1FB681F2BF1D9FB68202B66
:1023500002D10123FB7206E00649FB683A6841F8A6
:1023600023200023FB72FB7A18461437BD465DF824
:10237000047B70474404002080B586B000AF7860CD
:1023800000237B61FEF780FC38611CE03A697B69C1
:1023900022FA03F303F00103002B11D00D4A7B69ED
:1023A00052F82330FB60FB68002B01D0FB68984794
:1023B00001227B6902FA03F31846FEF771FC05E07F
:1023C0007B6901337B617B691F2BDFD900BF183725
:1023D000BD4680BD4404002080B485B000AFF860E5
:1023E0000B467A60FB72FB7A9B08DBB21A46FB68ED
:1023F000043253F82220FB7A03F00303DB00F821B8
:1024000001FA03F3DB43F97A8908C9B2084602EA04
:102410000301FB68021D43F82210FB685A6FFB7A28
:102420005B00032101FA03F3DB431A40FB685A67A0
:10243000FB68384A934203D0FB68374A93420AD17B
:10244000FB681A6EFB7A012101FA03F3DB431A40A1
:10245000FB681A663CE07B685A68FB7A9A40FB6826
:102460005A60FB7ADB08DBB21A46FB68103253F87D
:102470002220FB7A03F007039B00072101FA03F3F4
:10248000DB43F97AC908C9B2084602EA0301FB68CE
:1024900000F1100243F82210FB7ADB08DBB21A4687
:1024A000FB68103253F822207B681B7A1946FB7AAE
:1024B00003F007039B0001FA03F3F97AC908C9B2D4
:1024C000084642EA0301FB6800F1100243F82210BB
:1024D000FB7A9B08DBB21A46FB68043253F82220D1
:1024E0007B681B781946FB7A03F00303DB0001FAD3
:1024F00003F3F97A8908C9B2084642EA0301FB6886
:10250000021D43F8221000BF1437BD465DF8047B5E
:10251000704700BF008E0248008F024880B483B02D
:1025200000AF78600B46FB701346BB70FB78DB088E
:10253000DBB21A467B68103253F82220FB7803F096
:1025400007039B00072101FA03F3DB43F978C9086D
:10255000C9B2084602EA03017B6800F1100243F8A1
:102560002210FB78DB08DBB21A467B68103253F886
:102570002220B978FB7803F007039B0001FA03F3EC
:10258000F978C908C9B2084642EA03017B6800F13C
:10259000100243F8221000BF0C37BD465DF8047BE3
:1025A000704780B483B000AF78607B68DB6843F429
:1025B00080727B68DA6000BF0C37BD465DF8047B33
:1025C000704780B483B000AF78600B46FB70FA7838
:1025D0007B681A6200BF0C37BD465DF8047B70470C
:1025E00080B582B000AF78607B68114A934203D116
:1025F0000420FEF73DFE16E07B680E4A934203D1AD
:102600000820FEF735FE0EE07B680B4A934203D1AB
:102610001020FEF72DFE06E07B68084A934202D1A7
:102620000748FEF725FE00BF0837BD4680BD00BF46
:1026300000C0004000000140004001400040004850
:102640000100001080B582B000AF78607B68114A4D
:10265000934203D10420FEF729FE16E07B680E4A60
:10266000934203D10820FEF721FE0EE07B680B4A5F
:10267000934203D11020FEF719FE06E07B68084A5A
:10268000934202D10748FEF711FE00BF0837BD464E
:1026900080BD00BF00C0004000000140004001407C
:1026A000004000480100001080B582B000AF7860A3
:1026B0001020FFF7E5F87868FFF7C4FF00BF083780
:1026C000BD4680BD80B582B000AF78607868FFF706
:1026D00087FF00BF0837BD4680BD80B584B000AF1E
:1026E00078600B46FB707868FFF7DEFF7868FFF7CD
:1026F00058FF7B681B68FB60FB6823F44043FB606A
:10270000FB789B03FA681343FB607B68FA681A60E6
:1027100000BF1037BD4680BD80B485B000AF786083
:102720000B46FB707B681B68FB60FB6823F0300383
:10273000FB60FB781B01FA681343FB607B68FA6857
:102740001A6000BF1437BD465DF8047B704780B443
:1027500085B000AF786039607B681B68FB603B68C0
:102760001B0CDB43FA681340FB603B689BB2FA68C2
:102770001343FB607B68FA681A6000BF1437BD46DC
:102780005DF8047B704780B483B000AF7860396037
:102790003B681A687B685A613B685B79C3F34013F6
:1027A000DBB21A057B685A603B681B79C3F30303ED
:1027B000DBB21A467B685A623B685B79C3F303035A
:1027C000DBB21A467B681A623B685B79C3F300137D
:1027D000DBB21A467B689A613B681B79C3F303132B
:1027E000DBB21A467B68DA6200BF0C37BD465DF883
:1027F000047B704780B483B000AF786039603B6879
:102800001A687B685A613B685B79C3F30003DBB2EB
:102810001A057B685A603B681B79C3F30303DBB27C
:102820001A467B685A623B681B79C3F30313DBB219
:102830001A467B68DA6200BF0C37BD465DF8047B40
:10284000704780B485B000AF78600B46FB701346CC
:10285000BB707B685B68BB60BB6823F00303BB6035
:10286000FB78BA681343BB607B68BA685A607B68C0
:102870005B69FB60BB78012B04D1FB6843F4806388
:10288000FB6003E0FB6823F48063FB607B68FA680D
:102890005A6100BF1437BD465DF8047B704780B4B1
:1028A00085B000AF78600B46FB701346BB707B6849
:1028B0005B68FB60FB6823F00C03FB60FB789B000C
:1028C000FA681343FB607B68FA685A607B685B694F
:1028D000BB60BB6823F44073BB60BB781B02BA6863
:1028E0001343BB607B68BA685A6100BF1437BD46AA
:1028F0005DF8047B704780B485B000AF78600B460C
:10290000FB707B685B68FB60FB6823F44053FB60F3
:10291000FB781B03FA681343FB607B68FA685A6014
:1029200000BF1437BD465DF8047B704780B485B0A6
:1029300000AF7860084611461A460346FB700B4606
:10294000BB7013467B707B685B69FB607B685B6870
:10295000BB60BB6823F44023BB60FB789B04BA6870
:102960001343BB607B68BA685A60BB78012B04D103
:10297000FB6843F08073FB6003E0FB6823F0807327
:10298000FB607B78002B04D0FB6843F40003FB6002
:1029900003E0FB6823F40003FB607B68FA685A617C
:1029A00000BF1437BD465DF8047B704780B485B026
:1029B00000AF78600B46FB707B685B68FB60FB6870
:1029C00023F44043FB60FB789B03FA681343FB60EE
:1029D0007B68FA685A6000BF1437BD465DF8047B17
:1029E000704780B485B000AF78600B46FB707B68A1
:1029F0005B68FB60FB6823F44073FB60FB781B02A1
:102A0000FA681343FB607B68FA685A6000BF1437AA
:102A1000BD465DF8047B704780B485B000AF786038
:102A20000B46FB707B685B68FB60FB6823F0300340
:102A3000FB60FB781B01FA681343FB607B68FA6854
:102A40005A6000BF1437BD465DF8047B704780B400
:102A500085B000AF78600B46FB707B685B68FB60FD
:102A6000FB6823F0C003FB60FB789B01FA6813430B
:102A7000FB607B68FA685A6000BF1437BD465DF89A
:102A8000047B704780B485B000AF78600B46FB7064
:102A90007B685B68FB60FB6823F44063FB60FB784A
:102AA0009B02FA681343FB607B68FA685A6000BFB8
:102AB0001437BD465DF8047B704780B485B000AF25
:102AC00078607B685B68FB60FB6823F48033FB60A5
:102AD000FB6843F48033FB607B68FA685A6000BF90
:102AE0001437BD465DF8047B704780B485B000AFF5
:102AF00078600B46FB701346BB707B685B68BB60FD
:102B0000BB6823F40033BB60BB6843F40033BB6095
:102B10007B68BA685A607B685B69FB60BB78002B96
:102B200004D0FB6843F40013FB6003E0FB6823F46C
:102B30000013FB60FB78012B04D1FB6843F4800396
:102B4000FB6003E0FB6823F48003FB607B68FA68AA
:102B50005A6100BF1437BD465DF8047B704780B4EE
:102B600087B000AFF860B9607A60FB681B687B6172
:102B70007B6923F440237B61BB685B789B047A69A3
:102B800013437B617B6923F440137B617B685B7833
:102B90001B057A6913437B617B6923F400037B6126
:102BA000BB689B78DB057A6913437B617B6923F003
:102BB00080737B617B689B781B067A6913437B611A
:102BC0007B6923F0C0537B61BB68DB78DB067A69E5
:102BD00013437B617B6923F0C0437B617B68DB78B7
:102BE0005B077A6913437B617B6923F0F0037B61A8
:102BF000BB681B781B017A6913437B617B6923F4F3
:102C000070637B617B681B781B027A6913437B616D
:102C1000FB687A691A6000BF1C37BD465DF8047B0B
:102C2000704780B489B000AFF8600B467A60FB72E1
:102C3000FB7A013BFB77FB681B68BB61FB7F5B009A
:102C4000DBB21033FB75FB7D032202FA03F3DB4397
:102C5000BA691340BB617B685B781A46FB7D02FA58
:102C600003F3BA691343BB61FB7F1633FB75FB7D2E
:102C7000012202FA03F3DB43BA691340BB617B68AC
:102C80009B781A46FB7D02FA03F3BA691343BB61D2
:102C9000FB7F5B00DBB21933FB75FB7D032202FA7D
:102CA00003F3DB43BA691340BB617B68DB781A46E8
:102CB000FB7D02FA03F3BA691343BB61FB7F9B0000
:102CC000FB75FB7D0F2202FA03F3DB43BA69134065
:102CD000BB617B681B781A46FB7D02FA03F3BA6975
:102CE0001343BB61FB68BA691A6000BF2437BD4655
:102CF0005DF8047B704780B485B000AF78600B4608
:102D0000FB701346BB70FB78013BFB73FB7B9B00A6
:102D1000BB737B681B68BB60BB7B0F2202FA03F3AB
:102D2000DB43BA681340BB60BA78BB7B02FA03F39B
:102D3000BA681343BB607B68BA681A6000BF143777
:102D4000BD465DF8047B704780B483B000AF786007
:102D50000B46FB70FB78002B06D17B685B6923F088
:102D600002027B685A6105E07B685B6943F00202FE
:102D70007B685A6100BF0C37BD465DF8047B704725
:102D800080B483B000AF78600B46FB70FB78002BFB
:102D900006D17B685B6923F001027B685A6105E01C
:102DA0007B685B6943F001027B685A6100BF0C37A6
:102DB000BD465DF8047B704780B483B000AF786097
:102DC0000B46FB70FB787A681C339B0013445B68EE
:102DD00018460C37BD465DF8047B704780B487B059
:102DE00000AFF8600B467A60FB720123FB75FB684D
:102DF0005B6903F01003002B04D000237B750423D0
:102E00003B750BE0FB7A012B04D102237B75042375
:102E10003B7503E000237B7502233B757B7DBB750F
:102E200017E0BB7DFA681C339B0013445B6803F416
:102E30008013002B0AD0BB7DFA681C339B0013441F
:102E40005A687B681A600023FB7506E0BB7D01337E
:102E5000BB75BA7D3B7D9A42E3D3FB7D18461C3798
:102E6000BD465DF8047B704780B485B000AF7860E4
:102E70000B46FB707B681B6DFB60FB681B0D03F052
:102E80000303BB60FB78BA689A4202D04FF0FF336D
:102E9000FB60FB6818461437BD465DF8047B70473D
:102EA00080B584B000AF7860084611461A460346E4
:102EB000FB700B46BB7013467B707B685B69FB60E5
:102EC000FB6823F4C043FB60FB78002B03D0FB6856
:102ED00043F40053FB60BB78002B03D0FB6843F442
:102EE0008043FB607B68FA685A617B781946786892
:102EF000FFF767FB00BF1037BD4680BD80B485B0CB
:102F000000AF78600B46FB707B689B6AFB60FB68D8
:102F100023F47063FB60FB781B02FA681343FB60C9
:102F20007B68FA689A62FA787B685A6200BF143745
:102F3000BD465DF8047B704780B487B000AF786011
:102F40000B46FB701346BB707B68D3F8A830FB6060
:102F5000FB78092B2CD801A252F823F0852F00080A
:102F6000852F00088F2F00088F2F0008B12F000831
:102F7000B12F0008B12F0008B12F0008992F0008C9
:102F8000A52F000803233B6100237B6116E00C237F
:102F90003B6102237B6111E04FF440733B610823E6
:102FA0007B610BE04FF440633B610A237B6105E0EA
:102FB0004FF440533B610C237B6100BF3B69DB4313
:102FC000FA681340FB60BA787B6902FA03F3FA6887
:102FD0001343FB607B68FA68C3F8A82000BF1C3766
:102FE000BD465DF8047B704780B485B000AF786063
:102FF0000B46FB707B689B69FB60FB6823F0010359
:10300000FB60FB78FA681343FB607B68FA689A619F
:1030100000BF1437BD465DF8047B704780B485B0AF
:1030200000AF78600023FB6003E000BFFB68013362
:10303000FB60FB687A689A42F7D800BF1437BD4638
:103040005DF8047B7047000098B500AF064A4FF06A
:10305000005314460FCB84E80F0000F007F800F08F
:103060003DF800BF98BD00BFC4FF002080B483B00E
:1030700000AF72B6164B174A9A60BFF34F8F62B615
:10308000134BD3F88830124A43F47003C2F88830E7
:103090000F4B5B690E4A23F0080353610E4B03F597
:1030A000805314331B687B607B6823F00F037B60C5
:1030B0007B6843F003037B60074B03F580531433B5
:1030C0007A681A6000BF0C37BD465DF8047B704714
:1030D00000ED00E0000000080010005880B500AFCF
:1030E000754B1B6803F00103002B0CD1724B5B681E
:1030F000714A43F00103536000BF6F4B1B6803F03C
:103100000103002BF9D06D4B1B6803F40073002BF7
:1031100009D06A4B9B68694A43F40073936041F697
:103120004C50FFF77BFF664B5B68654A43F4002316
:10313000536040F6C410FFF771FF614B5B68604A53
:1031400023F4803323F0020353605E4B5B6803F08B
:103150003003002B29D05B4B5B685A4A23F4702361
:1031600023F03003536000F027F90246564BA3FBCF
:1031700002231B0D013B1A04524B5B685149134358
:103180004B604F4BDB684E4A23F00103D3604C4B3E
:103190005B684B4A23F40033536000BF484B1B6805
:1031A00003F46073B3F5607FF8D1454B5B68444A24
:1031B00043F001035360424B5B68414A43F0100304
:1031C00053603F4B414A9A603D4B5B683C4A43F039
:1031D000400353603A4B5B68394A23F01003536055
:1031E000374B5B68364A43F48023536000BF344B4F
:1031F0001B6803F00403002BF9D0314B5B68304AA5
:1032000023F00103536000BF2D4B1B6803F0010343
:10321000002BF9D12E4BDB682D4A43F48033D36069
:103220002B4B00225A612A4B00221A61284B0022A4
:103230001A62274B00225A62254B0022DA61244B86
:1032400003229A611E4B5B681D4A23F040035360C2
:103250001B4B204A9A6040F6B830FFF7DFFE00BFF4
:10326000174B1B6803F00403002BF9D0144B1A4AC8
:103270009A6041F29410FFF7D1FE00BF104B1B681B
:1032800003F00403002BF9D00D4B144A9A6041F26D
:103290007070FFF7C3FE00BF094B1B6803F0040307
:1032A000002BF9D00E4B0522DA60094B00225A6040
:1032B00000F018F800BF80BD0042005000440050EC
:1032C00010470050004700506BCA5F6B004F13015E
:1032D00000460050004F0701004F0401004F03015A
:1032E0006041005080B584B000AF2F4BDB6803F421
:1032F0008033002B3ED02D4BDB6803F00103002B05
:1033000002D02B4BFB6002E000F056F8F860274B30
:103310001B6803F00403002B20D0244B9B681B0E7A
:1033200003F00F0301337B60204B9B681B0A03F003
:103330007F0301333B601D4B9B681B0C03F07F0335
:103340000133BB607B68BA6802FB03F3FA68B2FB27
:10335000F3F23B6802FB03F3FB600DE0134B9B6849
:1033600003F07F030133BB60FA68BB68B2FBF3F381
:10337000FB6001E00E4BFB600B4BDB68DBB2013303
:10338000FA68B2FBF3F3FB60074B1B6903F0010320
:103390000133FA68B2FBF3F3FB60064AFB68136083
:1033A00000BF1037BD4680BD00460050104700509A
:1033B00000366E01C0FF002080B400AF024B1846FB
:1033C000BD465DF8047B7047001BB70080B584B034
:1033D00000AF7860144B1B68002B02D1124B134ACC
:1033E0001A60114B1B68FB607B68033323F00303F7
:1033F0007B600D4B1A687B6813440D4A934207D2D9
:10340000094B1A687B681344074A1360FB6806E09F
:1034100000F018F802460C2313604FF0FF331846F3
:103420001037BD4680BD00BF40040020C804002006
:10343000C0FF002080B400AF00BFBD465DF8047B34
:1034400070470000014B1868704700BF0C00002057
:1034500070B50D4E0D4D761BB61006D0002401340C
:1034600055F8043B9847A642F9D1094E094D761B01
:10347000FFF7E0FFB61006D00024013455F8043BF6
:103480009847A642F9D170BD3804002038040020C6
:103490003804002038040020692063616E206D6FBD
:0834A0007273650010000020AA
:1034A8008000000000000100000000001000002063
:1034B80000000000FC02002064030020CC03002070
:1034C80000000000000000000000000000000000F4
:1034D80000000000000000000000000000000000E4
:1034E80000000000000000000000000000000000D4
:1034F80000000000000000000000000000000000C4
:1035080000000000000000000000000000000000B3
:1035180000000000000000000000000000000000A3
:103528000000000000000000000000000000000093
:103538000000000000000000000000000000000083
:103548000000000000000000000000000000000073
:103558000000000000000000010000000000000062
:103568000E33CDAB34126DE6ECDE05000B00000027
:103578000000000000000000000000000000000043
:103588000000000000000000000000000000000033
:103598000000000000000000000000000000000023
:1035A8000000000000000000000000000000000013
:0400000508000201EC
:00000001FF
